:100000000C9462000C948A000C948A000C948A0070
:100010000C948A000C948A000C948A000C948A0038
:100020000C948A000C948A000C948A000C948A0028
:100030000C948A000C948A000C948A000C948A0018
:100040000C94A7020C948A000C9417030C94F102F0
:100050000C948A000C948A000C948A000C948A00F8
:100060000C948A000C948A000000000023002600F3
:10007000290000000000240027002A0000000000E2
:10008000250028002B0004040404040404040202D4
:100090000202020203030303030301020408102007
:1000A0004080010204081020010204081020000012
:1000B0000008000201000003040700000000000027
:1000C0000000660511241FBECFEFD8E0DEBFCDBF14
:1000D00011E0A0E0B1E0E8E5FFE002C005900D927C
:1000E000A033B107D9F721E0A0E3B1E001C01D9230
:1000F000AF3EB207E1F710E0C2E6D0E004C02197BE
:10010000FE010E949B07C136D107C9F70E9449032F
:100110000C94AA070C940000833081F028F48130FD
:1001200099F08230A9F008958730A9F08830C9F09D
:100130008430B1F4809180008F7D03C08091800075
:100140008F7780938000089584B58F7784BD08955C
:1001500084B58F7DFBCF8091B0008F778093B00006
:1001600008958091B0008F7DF9CF1F93CF93DF93D7
:10017000282F30E0F901E255FF4F8491F901E6564E
:10018000FF4FD491F901EA57FF4FC491CC23A9F056
:10019000162F81110E948C00EC2FF0E0EE0FFF1F54
:1001A000E458FF4FA591B4918FB7F894EC911111D9
:1001B00008C0D095DE23DC938FBFDF91CF911F91D4
:1001C0000895DE2BF8CFCF93DF9390E0FC01E65645
:1001D000FF4F24918A579F4FFC0184918823D1F0CF
:1001E00090E0880F991FFC01EE58FF4FA591B49144
:1001F000FC01E458FF4FC591D491623071F49FB770
:10020000F8943C91822F809583238C93E8812E2B48
:1002100028839FBFDF91CF9108958FB7F894EC9119
:100220002E2B2C938FBFF6CFAF92BF92CF92DF923F
:10023000EF92FF920F931F93CF93DF936C017B019B
:100240008B01040F151FEB015E01AE18BF08C0172C
:10025000D10759F06991D601ED91FC910190F0819F
:10026000E02DC6010995892B79F7C501DF91CF9162
:100270001F910F91FF90EF90DF90CF90BF90AF90C4
:100280000895FC01538D448D252F30E0842F90E09C
:10029000821B930B541710F0CF9608950197089581
:1002A000FC01918D828D981761F0A28DAE0FBF2F4A
:1002B000B11D5D968C91928D9F5F9F73928F90E0A0
:1002C00008958FEF9FEF0895FC01918D828D98170F
:1002D00031F0828DE80FF11D858D90E008958FEF4C
:1002E0009FEF0895FC01918D228D892F90E0805C15
:1002F0009F4F821B91098F739927089580E391E0A6
:100300000E94720121E0892B09F420E0822F0895D8
:1003100080E090E0892B29F00E947E0181110C94ED
:1003200000000895FC01A48DA80FB92FB11DA35A98
:10033000BF4F2C91848D90E001968F739927848F05
:10034000A689B7892C93A089B1898C918370806428
:100350008C93938D848D981306C00288F389E02DC9
:1003600080818F7D80830895EF92FF920F931F937A
:10037000CF93DF93EC0181E0888F9B8D8C8D981358
:100380001AC0E889F989808185FF15C09FB7F89464
:10039000EE89FF896083E889F989808183708064B0
:1003A00080839FBF81E090E0DF91CF911F910F91FB
:1003B000FF90EF900895F62E0B8D10E00F5F1F4F0A
:1003C0000F731127E02E8C8D8E110CC00FB607FC19
:1003D000FACFE889F989808185FFF5CFCE010E94A7
:1003E0009201F1CFEB8DEC0FFD2FF11DE35AFF4F82
:1003F000F0829FB7F8940B8FEA89FB898081806235
:10040000CFCFCF93DF93EC01888D8823B9F0AA89F1
:10041000BB89E889F9898C9185FD03C0808186FDBF
:100420000DC00FB607FCF7CF8C9185FFF2CF80810E
:1004300085FFEDCFCE010E949201E9CFDF91CF91F0
:1004400008958F929F92AF92BF92CF92DF92EF92D8
:10045000FF920F931F93CF93DF935BE2E52E51E062
:10046000F52EE701199161E0812F0E94E30061E020
:10047000812F0E94B50081E0CF32D80799F762E062
:1004800085E00E94E30062E084E00E94E30062E015
:1004900083E00E94E30062E082E00E94E300D0E09B
:1004A000C0E0A12CF70191907F0160E0892D0E94AE
:1004B000B50047E2C42E41E0D42E10E000E0F60182
:1004C00021916F0130E0F901E255FF4F8491F9016C
:1004D000E656FF4FB490F901EA57FF4F8490882009
:1004E00051F181110E948C00E82DF0E0EE0FFF1F0A
:1004F000E859FF4FA591B491EC91BE22E1F00F5F56
:100500001F4F04301105D9F661E0892D0E94B50016
:100510002196C430D10509F0C5CF8A2DDF91CF9146
:100520001F910F91FF90EF90DF90CF90BF90AF9011
:100530009F908F900895CE01880F991F880F991F63
:100540008B5F9E4F080F191FF801A080DDCF1F920F
:100550000F920FB60F9211242F933F938F939F9377
:10056000AF93BF938091EB019091EC01A091ED01CD
:10057000B091EE013091EA0123E0230F2D3758F5B9
:100580000196A11DB11D2093EA018093EB01909388
:10059000EC01A093ED01B093EE018091E601909102
:1005A000E701A091E801B091E9010196A11DB11DFB
:1005B0008093E6019093E701A093E801B093E901ED
:1005C000BF91AF919F918F913F912F910F900FBE4F
:1005D0000F901F90189526E8230F0296A11DB11DBC
:1005E000D2CF1F920F920FB60F9211242F933F93E9
:1005F0004F935F936F937F938F939F93AF93BF932B
:10060000EF93FF9380E391E00E949201FF91EF91BD
:10061000BF91AF919F918F917F916F915F914F911A
:100620003F912F910F900FBE0F901F9018951F9222
:100630000F920FB60F9211242F938F939F93EF93E6
:10064000FF93E0914001F09141018081E0914601EA
:10065000F091470182FD1BC09081809149018F5F1D
:100660008F7320914A01821741F0E0914901F0E037
:10067000E05DFE4F958F80934901FF91EF919F912F
:100680008F912F910F900FBE0F901F901895808122
:10069000F4CF789484B5826084BD84B5816084BDD4
:1006A00085B5826085BD85B5816085BD80916E0010
:1006B000816080936E001092810080918100826041
:1006C000809381008091810081608093810080917E
:1006D00080008160809380008091B100846080936D
:1006E000B1008091B00081608093B00080917A0069
:1006F000846080937A0080917A00826080937A008F
:1007000080917A00816080937A0080917A0080687D
:1007100080937A001092C100E0914001F091410174
:1007200082E08083E0913C01F0913D011082E091F4
:100730003E01F0913F018FEC808310924801E091DF
:100740004401F091450186E08083E0914201F091FF
:100750004301808180618083E0914201F0914301F7
:10076000808188608083E0914201F0914301808123
:1007700080688083E0914201F091430180818F7D08
:100780008083CBE2D1E09FE2E92E91E0F92E19912E
:1007900061E0812F0E94E30061E0812F0E94B5009B
:1007A000EC16FD06A1F762E085E00E94E30062E03E
:1007B00084E00E94E30062E083E00E94E30062E0E4
:1007C00082E00E94E300BB24B39485E4A82EC0E03D
:1007D000D0E001E010E0992493948091E40190919D
:1007E000E501009761F0019709F499C02097A9F3FA
:1007F0000E947E01882389F30E940000EECF0E94B0
:100800002102F82E8FB7F8944090EB015090EC0144
:100810006090ED017090EE018FBF8091E30188231D
:10082000D1F08091DF019091E001A091E101B091C0
:10083000E201A3019201281B390B4A0B5B0BDA0181
:10084000C901883E9340A105B10508F04FC061E0A1
:100850008AE00E94B5008091DE018823B9F0809182
:10086000DA019091DB01A091DC01B091DD01481A21
:10087000590A6A0A7B0A48EE441643E054066104AA
:100880007104F0F561E08DE00E94B5008091D9011E
:10089000F81609F4ABCFF092D901FF2009F4A6CFE6
:1008A0008091D7019091D801FC01EE52FE4FF08269
:1008B00001969093D8018093D701843091050CF470
:1008C00095CF8E529E4FFC01108262ED71E080E068
:1008D00091E00E94A107892BE9F41093E5010093B0
:1008E000E4011092D8011092D70180CF60E08AE035
:1008F0000E94B5008091E3018B258093E301ABCF8B
:1009000060E08DE00E94B5008091DE018B25809330
:10091000DE01BCCF1092E5011092E401E2CF0E940B
:1009200021029FB7F894C090EB01D090EC01E090C9
:10093000ED01F090EE019FBF813441F0C092CE01F5
:10094000D092CF01E092D001F092D1014091CE013E
:100950005091CF016091D0017091D10126013701F2
:10096000441A550A660A770AB301A201413D57406D
:100970006105710570F0C092CE01D092CF01E09276
:10098000D001F092D1018093D9011092E50110922B
:10099000E401A0927C0080917A00806480937A00C8
:1009A00080917A0086FDFCCF60917800709179008B
:1009B000072E000C880B990B0E94790620E030E08E
:1009C0004AEA52E40E942E0720E030EC4FE754E45C
:1009D0000E94050620E030E040EA50E40E949305C2
:1009E0002B013C0120E030E048EA51E40E94290755
:1009F00018160CF04CC01092CD0120E030E048E910
:100A000051E4C301B2010E94000687FFEFCE90922D
:100A1000CD018091CD01882309F4E8CE8091E301D6
:100A2000811119C08091DF019091E001A091E10155
:100A3000B091E20126013701481A590A6A0A7B0A75
:100A4000D301C201883E9340A105B10558F561E08C
:100A500080E00E94B5008091DE018111C7CE8091B7
:100A6000DA019091DB01A091DC01B091DD01C81A9F
:100A7000D90AEA0AFB0A38EEC31633E0D306E104CA
:100A8000F104D0F461E080E00E94B500AFCE20E038
:100A900030E048E951E4C301B2010E94000687FD3D
:100AA000B6CFB7CF60E080E00E94B5008091E3014F
:100AB0008B258093E301CFCF60E080E00E94B500FA
:100AC0008091DE018B258093DE0190CEE0E3F1E0A2
:100AD0001382128288EE93E0A0E0B0E084839583D5
:100AE000A683B78389E191E09183808385EC90E0D0
:100AF0009587848784EC90E09787868780EC90E0E8
:100B0000918B808B81EC90E0938B828B82EC90E0D8
:100B1000958B848B86EC90E0978B868B118E128E52
:100B2000138E148E08955058BB27AA270E94AB0538
:100B30000C94EF060E94E10638F00E94E80620F0CF
:100B400039F49F3F19F426F40C94DE060EF4E09578
:100B5000E7FB0C94D806E92F0E94000758F3BA1758
:100B6000620773078407950720F079F4A6F50C94C3
:100B700022070EF4E0950B2EBA2FA02D0B01B90120
:100B800090010C01CA01A0011124FF27591B99F003
:100B9000593F50F4503E68F11A16F040A22F232F0F
:100BA000342F4427585FF3CF469537952795A7955F
:100BB000F0405395C9F77EF41F16BA0B620B730B06
:100BC000840BBAF09150A1F0FF0FBB1F661F771F77
:100BD000881FC2F70EC0BA0F621F731F841F48F42C
:100BE000879577956795B795F7959E3F08F0B0CFB5
:100BF0009395880F08F09927EE0F9795879508959C
:100C00000E94B40608F481E008950E9419060C942D
:100C1000EF060E94E80658F00E94E10640F029F431
:100C20005F3F29F00C94D80651110C9423070C94C3
:100C3000DE060E94000768F39923B1F3552391F370
:100C4000951B550BBB27AA2762177307840738F03B
:100C50009F5F5F4F220F331F441FAA1FA9F335D098
:100C60000E2E3AF0E0E832D091505040E695001C4C
:100C7000CAF72BD0FE2F29D0660F771F881FBB1F06
:100C8000261737074807AB07B0E809F0BB0B802DE4
:100C9000BF01FF2793585F4F3AF09E3F510578F010
:100CA0000C94D8060C9423075F3FE4F3983ED4F3EA
:100CB000869577956795B795F7959F5FC9F7880FE4
:100CC000911D9695879597F90895E1E0660F771F36
:100CD000881FBB1F621773078407BA0720F0621BC7
:100CE000730B840BBA0BEE1F88F7E0950895E89418
:100CF00009C097FB3EF490958095709561957F4F64
:100D00008F4F9F4F9923A9F0F92F96E9BB27939511
:100D1000F695879577956795B795F111F8CFFAF421
:100D2000BB0F11F460FF1BC06F5F7F4F8F4F9F4F52
:100D300016C0882311F096E911C0772321F09EE8B0
:100D4000872F762F05C0662371F096E8862F70E016
:100D500060E02AF09A95660F771F881FDAF7880FF0
:100D60009695879597F90895990F0008550FAA0B46
:100D7000E0E8FEEF16161706E807F907C0F01216AE
:100D80001306E407F50798F0621B730B840B950BB1
:100D900039F40A2661F0232B242B252B21F4089506
:100DA0000A2609F4A140A6958FEF811D811D0895A3
:100DB00097F99F6780E870E060E008959FEF80EC0E
:100DC000089500240A9416161706180609060895B1
:100DD00000240A9412161306140605060895092E17
:100DE0000394000C11F4882352F0BB0F40F4BF2B86
:100DF00011F460FF04C06F5F7F4F8F4F9F4F0895C6
:100E000057FD9058440F551F59F05F3F71F04795BB
:100E1000880F97FB991F61F09F3F79F087950895A0
:100E2000121613061406551FF2CF4695F1DF08C0BF
:100E3000161617061806991FF1CF869571056105DC
:100E400008940895E894BB2766277727CB0197F984
:100E500008950E94B40608F48FEF08950E94410798
:100E60000C94EF060E94E10638F00E94E80620F09C
:100E7000952311F00C94D8060C94DE0611240C94E2
:100E800023070E94000770F3959FC1F3950F50E070
:100E9000551F629FF001729FBB27F00DB11D639F2C
:100EA000AA27F00DB11DAA1F649F6627B00DA11DD2
:100EB000661F829F2227B00DA11D621F739FB00D78
:100EC000A11D621F839FA00D611D221F749F3327E8
:100ED000A00D611D231F849F600D211D822F762F81
:100EE0006A2F11249F5750409AF0F1F088234AF05E
:100EF000EE0FFF1FBB1F661F771F881F91505040CA
:100F0000A9F79E3F510580F00C94D8060C94230756
:100F10005F3FE4F3983ED4F3869577956795B79550
:100F2000F795E7959F5FC1F7FE2B880F911D96956A
:100F3000879597F90895EE0FFF1F0590F491E02D26
:100F40000994FB01DC018D91019080190110D9F306
:080F5000990B0895F894FFCFFE
:100F5800313233340031323341343536423738395F
:100F6800432A30234400000000B401140141010168
:100F78000272015001640105040302090807060012
:00000001FF
